:100003003F065B4F666D7D077F6F777C395E797145
:0A0350000410000000000218000075
:06033C00D2A7C2A77F0555
:0D034200EFD3940040077E7DDEFE1F80F3A8
:01034F00228B
:10031700C2A6E51890000393F580D2A6C2A6C2A78D
:100327007580FE12033CE51993F580D2A6C2A67527
:0503370080FD02033C03
:03001300020016D2
:10001600C0E0C0F0C083C082C0D075D008D28CAF1B
:100026008CEFFEAD8A7C00E42DFFEC3EFEE48F17DC
:100036008E16F515F514F58CF58A7F407E1FFDABFF
:1000460017AA16A915A814D31202354020E47FB0CA
:100056007E36FDFCA8141202355012751F00751E5F
:1000660000751D00751C00751B0102015CE51B6413
:1000760001600302015C7FAA7E05FDFCAB17AA1690
:10008600A915A814D31202354048E47FB87E0BFDAB
:10009600FCA814120235503AE47B08FAF9F8AF1FAF
:1000A600AE1EAD1DAC1C1201A374102FF8E6FEC3E4
:1000B600134480FEC00E74102FF8D0E0F6E51F241E
:1000C60001F51FE4351EF51EE4351DF51DE4351C4E
:1000D600F51CE47FBC7E02FDFCAB17AA16A915A889
:1000E60014D31202354041E47FAA7E05FDFCA81414
:1000F6001202355033E47B08FAF9F8AF1FAE1EAD95
:100106001DAC1C1201A374102FF8C008E6FFC31320
:10011600D008F6E51F2401F51FE4351EF51EE4356B
:100126001DF51DE4351CF51CE47F20FEFDFCAB1F10
:10013600AA1EA91DA81CC3120235701AF51FF51EAA
:10014600F51DF51CF51BE513F4B51207751A01C26A
:100156008C8003751A00D0D0D082D083D0F0D0E046
:010166003266
:1002D200E4F51FF51EF51DF51CF51BD2AFD28AD22F
:1002E200AA758911F58CF58AC28CE51AB40112E55A
:1002F20012540FF519E512C4540FF518E4F51AC299
:10030200A27A007B64D3EB9400EA940040DCEB1BFE
:0503120070F31A80F0F9
:03000000020246B3
:0C024600787FE4F6D8FD75811F02028D60
:1001670075F008758200EF2FFFEE33FECD33CDCC4F
:1001770033CCC58233C5829BED9AEC99E5829840D2
:100187000CF582EE9BFEED9AFDEC99FC0FD5F0D6AF
:10019700E4CEFBE4CDFAE4CCF9A88222B800C1B9D9
:1001A7000059BA002DEC8BF084CFCECDFCE5F0CB17
:1001B700F97818EF2FFFEE33FEED33FDEC33FCEB50
:1001C70033FB10D703994004EB99FB0FD8E5E4F90B
:1001D700FA227818EF2FFFEE33FEED33FDEC33FCF8
:1001E700C933C910D7059BE99A4007EC9BFCE99AEC
:1001F700F90FD8E0E4C9FAE4CCFB2275F010EF2F31
:10020700FFEE33FEED33FDCC33CCC833C810D70730
:100217009BEC9AE899400AED9BFDEC9AFCE899F86B
:0E0227000FD5F0DAE4CDFBE4CCFAE4C8F922FE
:10023500EB9FF5F0EA9E42F0E99D42F0E89C45F01F
:010245002296
:100252000202D2E493A3F8E493A34003F68001F2EE
:1002620008DFF48029E493A3F85407240CC8C333AD
:10027200C4540F4420C8834004F456800146F6DF7C
:10028200E4800B0102040810204080900350E47EB9
:10029200019360BCA3FF543F30E509541FFEE49371
:1002A200A360010ECF54C025E060A840B8E493A338
:1002B200FAE493A3F8E493A3C8C582C8CAC583CA63
:1002C200F0A3C8C582C8CAC583CADFE9DEE780BE1B
:01035A0000A2
:00000001FF
