:03000000020A4CA5
:0C0A4C00787FE4F6D8FD758139020A932A
:100D380054703A30302E3020432054693A303030E5
:100D4800002055703A30302020446F776E3A3030AA
:020D5800200079
:100DB200C101C18204230000000001381D01332358
:070DC200022E0000012100D8
:0F0CE3008F807F057E00120CF2D2927F057E007B
:100CF200D3EF9400EE940040147D0A7C00ED1D7049
:0D0D0200011CED4C70F7EF1F70E61E80E342
:010D0F0022C1
:100CB20005337FC4120CDBE53375F00A8475F00A44
:100CC20084E5F02430FF120C09E53375F00A84E55F
:090CD200F02430FF120C097FC56B
:080CDB00C291120CE3C2922247
:100BCA007F8D120CDBAE2EAF2F7C007D64120330BA
:100BDA00EF2430FF120C09AE2EAF2F7C007D0A12D3
:100BEA0003307C007D0A120330ED2430FF120C0919
:0F0BFA00AE2EAF2F7C007D0A120330ED2430FFAA
:080C0900D291120CE3C2922209
:100C1100E4FB7F38120CDB7F0C120CDB7F06120C1D
:100C2100DB7F01120CDB7F80120CDBEB900D389324
:100C3100FF120C090BBB10F37FC0120CDBE4FBEBC2
:0C0C4100900D4993FF120C090BBB10F33F
:010C4D002284
:10098C008E108F11AA057F83120CDBAE10AF117C79
:10099C00007D641202DBEF2430FF120C09AE10AFA5
:1009AC00117C007D0A1202DB7C007D0A1202DB1234
:1009BC000C057F2E120C09AE10AF117C007D0A12B3
:1009CC0002DB120C057FDF120C097F8D120CDBEAA7
:1009DC0075F064842430FF120C09EA75F00A8475F2
:1009EC00F00A84E5F02430FF120C09EA75F00A8451
:1009FC00E5F02430FF120C097FC4120CDBEB75F010
:100A0C000A8475F00A84E5F02430FF120C09EB75AA
:100A1C00F00A84E5F02430FF120C097FCD120CDBB8
:100A2C00E51475F00A8475F00A84E5F02430FF12A1
:100A3C000C09E51475F00A84E5F02430FF020C096A
:100C4E007F80120CDB7F53120C097F65120C097F1B
:100C5E0074120C097F20120C097F73120C097F7419
:100C6E00120C097F61120C097F74120C097F650248
:020C7E000C095F
:100D5A00E4FDFCC3ED9FEC9E5015E4FBFA0BBB00CF
:0F0D6A00010AEB64794A70F50DBD00010C80E4BD
:010D79002257
:0B000300EF1FAC0670011E4C70F622CF
:100D1000E4FDD2A27F08FE120003C2A27F507E0033
:100D2000120003D2A27F0E7E00120003A2A2E433BF
:080D3000FD7F147E00020003A8
:100D7A00E4FB7D08C2A2EBC313FBD2A230A2034359
:0D0D8A0003807F047E00120003DDE9AF034B
:010D97002239
:020D9800AD07A5
:100D9A007B08C2A2ED1392A27F057E00120003D245
:070DAA00A2EDC313FDDBEB1A
:010DB100221F
:100B6000E4FAFFFDFCF513F512F511F510120D1066
:100B70007FCC120D987F44120D98120D107FCC126D
:100B80000D987FBE120D98120D7AAA07120D7AAD3C
:100B900007EDFCEAFDE4120221E4FBFA7980783DDE
:100BA0001201168F138E128D118C10E4FFFE7D2022
:100BB0007C41AB13AA12A911A810120116E4FBFA8A
:090BC000F9783F12002512025AD7
:010BC9002209
:100C8000120B60EF24FBF531EE34FFF530FEAF318F
:100C90007C007D0A1202DB8F39C3E53964809480C1
:100CA0005003E4F539D3E539648094E340037539A2
:020CB0006322BD
:1004530020943F3094FDC2A60521120C4EE521B431
:100463000405752101D2A67F38120CDB7F0D120C17
:10047300DB7F06120CDBE52124FE600B14600C24E9
:1004830002700F7F8F80067FC580027FCE120CDB48
:10049300D2A6309503020518E52160793095FDC297
:1004A300A6E52124FE602814603324027067C3E5A7
:1004B3002F94E7E52E648094835010052FE52F7069
:1004C30002052E120BCA7F8F120CDBD2A68046E5E3
:1004D30033C394625003120CB2D2A68038E53314AE
:1004E300FFE538C39F502C05387FCD120CDBE53870
:1004F30075F00A8475F00A84E5F02430FF120C09C4
:10050300E53875F00A84E5F02430FF120C097FCE3C
:10051300120CDBD2A63096030205ABE52170030271
:1005230005AB3096FDC2A6E52124FE602814604386
:1005330024027074D3E52F9400E52E6480948040E8
:1005430010E52F152F7002152E120BCA7F8F120C78
:10055300DBD2A68053E5382401FFE433FED3E53331
:100563009FEE6480F874809840051533120CB4D262
:10057300A68035E538D39400402C15387FCD120C76
:10058300DBE53875F00A8475F00A84E5F02430FF62
:10059300120C09E53875F00A84E5F02430FF120CDB
:1005A300097FCE120CDBD2A62097203097FDC2A67E
:1005B300E4F521120C11D3E52F9400E52E64809409
:1005C300804006D201D290D28ED2A6E52D6401607E
:1005D30003020767E525640D7042C2A60521120CCC
:1005E3004EE521B40405752101D2A67F38120CDB38
:1005F3007F0D120CDB7F06120CDBE52124FE600E5F
:1006030014600F240260030207647F8F80067FC596
:1006130080027FCE120CDBD2A6020764E52564407C
:1006230060030206ABE5217003020764C2A624FE41
:10063300602C14603824026003020764C3E52F941E
:10064300E7E52E648094835010052FE52F70020593
:100653002E120BCA7F8F120CDBD2A6020764E5337E
:10066300C394625003120CB2D2A6020764E533149A
:10067300FFE538C39F502C05387FCD120CDBE538DE
:1006830075F00A8475F00A84E5F02430FF120C0932
:10069300E53875F00A84E5F02430FF120C097FCEAB
:1006A300120CDBD2A6020764E52564196003020776
:1006B30042E5217003020764C2A624FE602C146085
:1006C3004724026003020764D3E52F9400E52E64F8
:1006D3008094804010E52F152F7002152E120BCA3F
:1006E3007F8F120CDBD2A6020764E5382401FFE4F6
:1006F30033FED3E5339FEE6480F87480984005158C
:1007030033120CB4D2A68059E538D39400402C158B
:10071300387FCD120CDBE53875F00A8475F00A8456
:10072300E5F02430FF120C09E53875F00A84E5F092
:100733002430FF120C097FCE120CDBD2A68022E5F7
:1007430025B4151DC2A6E4F521120C11D3E52F948F
:1007530000E52E648094804006D201D290D28ED2DE
:05076300A6E4F52D22C3
:100DCA0030001030020DC2A67FE87E03120D5AD2FF
:040DDA00A6C2022289
:1008B700120C11D2AFD28AD2AAD2AB758911758D1B
:1008C7003C758BB0E4F58CF58AC28C120C807FE8FE
:1008D7007E03120D5A752263E4F52B120C80E52175
:1008E7006003020983AD2F853814AB33AF31AE30C7
:1008F70012098C30B60B30B708D203C293D290805E
:1009070002C20320B70A20B607D293200002D20002
:1009170020B70B30B608D293D290C2A6D2032001DB
:100927005BC3E5226480F8E539648098504EE52B77
:100937006480F8E5396480984042AD39ED3395E03D
:10094700FCC3ED95337480F86C984009D290200071
:100957001FD200801BC3ED95387480F86C98500C3B
:10096700200309C290200008D2008004C200D202EE
:10097700E5392405F522E53924FBF52B120453123A
:050987000DCA0208E2A8
:03001B00020AD8FE
:0D0AD800C0E0C0D075D000C000C004C00553
:100AE500758D3C758BB00516E5167002051564B05D
:100AF5007004E51564047058F515F516E52F152FE6
:100B05007002152EE52F452E7046C201AD39ED3325
:100B150095E0FCC3ED95337480F86C984009D2904C
:100B250020001FD200801BC3ED95387480F86C98A7
:100B3500500C200309C290200008D2008004C20096
:100B4500D202E539240AF522E53924F6F52BC28EC1
:0B0B5500D005D004D000D0D0D0E0329A
:0300130002076879
:10076800C0E0C0F0C083C082C0D075D008D28CAFC2
:100778008CEFFEAD8A7C00E42DFFEC3EFEE48F2A70
:100788008E29F528F527F58CF58A7F407E1FFDAB6D
:100798002AAA29A928A827D31204424020E47FB016
:1007A8007E36FDFCA82712044250127537007536B4
:1007B800007535007534007532010208ACE5326405
:1007C8000160030208AC7FAA7E05FDFCAB2AAA29BA
:1007D800A928A827D31204424047E47FB87E0BFD1E
:1007E800FCA8271204425039E47B08FAF9F8AF371D
:1007F800AE36AD35AC341203A274232FF8E6C3131A
:100808004480FEC00E74232FF8D0E0F6E5372401AB
:10081800F537E43536F536E43535F535E43534F570
:1008280034E47FBC7E02FDFCAB2AAA29A928A827AC
:10083800D31204424040E47FAA7E05FDFCA827129B
:1008480004425032E47B08FAF9F8AF37AE36AD35DA
:10085800AC341203A274232FF8C008E6C313D008DF
:10086800F6E5372401F537E43536F536E43535F560
:1008780035E43534F534E47F20FEFDFCAB37AA3689
:10088800A935A834C3120442701AF537F536F53580
:10089800F534F532E526F4B52507752D01C28C80AF
:0F08A80003752D00D0D0D082D083D0F0D0E032B5
:10001E000202C6E86480F8E933E83360110460F048
:10002E00ED33EC337009E8FCE9FDEAFEEBFF220448
:10003E0060DED3EB9FEA9EE99DE8C2E78CF0C2F743
:10004E0095F0400CE8CCF8E9CDF9EACEFAEBCFFB0F
:10005E0012029185D0F05804700320D5B3E80470D5
:10006E00075002B2D50202D092D5EC0460F7E4CC70
:10007E00C0E0C398F8603B94186008400DD0E0FBD8
:10008E000202A8E4FBFAC9FC8028E830E406E4C9C1
:10009E00FBE4CAFCE830E305E4C9CACBFCE854072C
:1000AE006010F8C3E913F9EA13FAEB13FBEC13FC37
:1000BE00D8F130F52FC3E49CFCEF9BFFEE9AFEEDDA
:1000CE0099FDD0E0FBEF4E4D4C701222DB03020285
:1000DE00CDEC2CFCEF33FFEE33FEED33FDED30E7D0
:1000EE00EB0202A8EF2BFFEE3AFEED39FDD0E0FB5E
:1000FE0050130BBB00030202D0ED13FDEE13FEEF07
:08010E0013FFEC13FC0202A830
:10011600EC4D6011E8497017ED33EC3304600DE4E3
:10012600FCFFFEFD22E933E8330470F80202C61232
:10013600029158046009E4CC248150062850090233
:1001460002D02840030202CDC0E0EB4A7044B980D9
:1001560006D0E0FB0202BCEF4E701CBD8008EBFF30
:10016600EAFEE9FD80EBE98DF0A4FEE5F00201FF71
:10017600E9CDF9EAFEEBFFEF89F0A4FCE5F0CE89C4
:10018600F0A42EFFE435F0CD89F0A42DFEE435F081
:100196008067EF4E7005BD80D780C3EF8BF0A4ACAF
:1001A600F0EE8BF0A42CFCE435F0F8EF8AF0A42CEA
:1001B600E5F038FCE433CB8DF0A42CFCE5F03BF8FD
:1001C600EE8AF0A42CFCE5F038F8E433CF89F0A4ED
:1001D6002CFCE5F038CF3400CE89F0A42FFFE5F0F3
:1001E6003EFEE433C98DF0A42EFEE5F039CD8AF04B
:1001F600A42FFFE5F03EFEE43DFD33D0E0FB5007C3
:100206000BBB000F0202D0EC2CFCEF33FFEE33FEEB
:06021600ED33FD0202A819
:10021C0075F020800E75F010800575F0087D007E5D
:10022C00007F003392D530D503120434EC334010E8
:10023C00EF33FFEE33FEED33FDEC33FCD5F0ED2266
:0E024C00E5F0247EA2D513CC92E7CDCEFF22A2
:10025A00EDD2E7CD33EC3392D524814006E4FFFE9C
:10026A00FDFC22FCE4CFCECDCC24E0501174FF80FB
:10027A00EDC3CC13CCCD13CDCE13CECF13CF047098
:07028A00F030D5DE02043460
:10029100E9D2E7C933E833F892D5EDD2E7CD33ECB3
:0702A10033FC5002B2D5222C
:1002A800EC30E7100FBF000C0EBE00080DBD0004B7
:1002B8000BEB6014A2D5EB13FCED92E7FD2274FF63
:1002C800FCFDFEFF22E480F8A2D574FF13FC7D80BC
:0302D800E480EFD0
:100A58000208B7E493A3F8E493A34003F68001F2F5
:100A680008DFF48029E493A3F85407240CC8C3339F
:100A7800C4540F4420C8834004F456800146F6DF6E
:100A8800E4800B0102040810204080900DB2E47E3F
:100A9800019360BCA3FF543F30E509541FFEE49363
:100AA800A360010ECF54C025E060A840B8E493A32A
:100AB800FAE493A3F8E493A3C8C582C8CAC583CA55
:100AC800F0A3C8C582C8CAC583CADFE9DEE780BE0D
:010DC9000029
:1002DB00BC000BBE0029EF8DF084FFADF022E4CC07
:1002EB00F875F008EF2FFFEE33FEEC33FCEE9DECD0
:1002FB00984005FCEE9DFE0FD5F0E9E4CEFD22ED16
:10030B00F8F5F0EE8420D21CFEADF075F008EF2F5F
:10031B00FFED33FD4007985006D5F0F222C398FD50
:05032B000FD5F0EA22ED
:10033000C2D5EC30E709B2D5E4C39DFDE49CFCEEE8
:1003400030E715B2D5E4C39FFFE49EFE1202DBC383
:10035000E49DFDE49CFC80031202DB30D507C3E47E
:060360009FFFE49EFE2257
:1003660075F008758200EF2FFFEE33FECD33CDCC4E
:1003760033CCC58233C5829BED9AEC99E5829840D1
:100386000CF582EE9BFEED9AFDEC99FC0FD5F0D6AE
:10039600E4CEFBE4CDFAE4CCF9A88222B800C1B9D8
:1003A6000059BA002DEC8BF084CFCECDFCE5F0CB16
:1003B600F97818EF2FFFEE33FEED33FDEC33FCEB4F
:1003C60033FB10D703994004EB99FB0FD8E5E4F90A
:1003D600FA227818EF2FFFEE33FEED33FDEC33FCF7
:1003E600C933C910D7059BE99A4007EC9BFCE99AEB
:1003F600F90FD8E0E4C9FAE4CCFB2275F010EF2F30
:10040600FFEE33FEED33FDCC33CCC833C810D7072F
:100416009BEC9AE899400AED9BFDEC9AFCE899F86A
:0E0426000FD5F0DAE4CDFBE4CCFAE4C8F922FD
:0E043400C3E49FFFE49EFEE49DFDE49CFC22D9
:10044200EB9FF5F0EA9E42F0E99D42F0E89C45F010
:010452002287
:00000001FF
